{
  "contractName": "Tiny",
  "abi": [
    {
      "inputs": [],
      "payable": false,
      "stateMutability": "nonpayable",
      "type": "constructor"
    },
    {
      "constant": false,
      "inputs": [
        {
          "name": "val",
          "type": "string"
        }
      ],
      "name": "addKv",
      "outputs": [],
      "payable": true,
      "stateMutability": "payable",
      "type": "function"
    },
    {
      "constant": true,
      "inputs": [
        {
          "name": "lookupKey",
          "type": "address"
        }
      ],
      "name": "getKv",
      "outputs": [
        {
          "name": "",
          "type": "string"
        }
      ],
      "payable": false,
      "stateMutability": "view",
      "type": "function"
    },
    {
      "constant": false,
      "inputs": [],
      "name": "withdraw",
      "outputs": [],
      "payable": false,
      "stateMutability": "nonpayable",
      "type": "function"
    }
  ],
  "bytecode": "0x608060405234801561001057600080fd5b5033600260006101000a81548173ffffffffffffffffffffffffffffffffffffffff021916908373ffffffffffffffffffffffffffffffffffffffff160217905550610523806100616000396000f300608060405260043610610057576000357c0100000000000000000000000000000000000000000000000000000000900463ffffffff1680633ccfd60b1461005c578063b52f12f714610073578063d20955aa146100a1575b600080fd5b34801561006857600080fd5b5061007161015d565b005b61009f6004803603810190808035906020019082018035906020019190919293919293905050506102a4565b005b3480156100ad57600080fd5b506100e2600480360381019080803573ffffffffffffffffffffffffffffffffffffffff169060200190929190505050610372565b6040518080602001828103825283818151815260200191508051906020019080838360005b83811015610122578082015181840152602081019050610107565b50505050905090810190601f16801561014f5780820380516001836020036101000a031916815260200191505b509250505060405180910390f35b600260009054906101000a900473ffffffffffffffffffffffffffffffffffffffff1673ffffffffffffffffffffffffffffffffffffffff163373ffffffffffffffffffffffffffffffffffffffff16141515610222576040517f08c379a00000000000000000000000000000000000000000000000000000000081526004018080602001828103825260168152602001807f53656e646572206e6f7420617574686f72697a65642e0000000000000000000081525060200191505060405180910390fd5b600260009054906101000a900473ffffffffffffffffffffffffffffffffffffffff1673ffffffffffffffffffffffffffffffffffffffff166108fc3073ffffffffffffffffffffffffffffffffffffffff16319081150290604051600060405180830381858888f193505050501580156102a1573d6000803e3d6000fd5b50565b600066038d7ea4c6800090508034101515156102bc57fe5b33600160006101000a81548173ffffffffffffffffffffffffffffffffffffffff021916908373ffffffffffffffffffffffffffffffffffffffff1602179055508282600080600160009054906101000a900473ffffffffffffffffffffffffffffffffffffffff1673ffffffffffffffffffffffffffffffffffffffff1673ffffffffffffffffffffffffffffffffffffffff168152602001908152602001600020919061036c929190610452565b50505050565b60606000808373ffffffffffffffffffffffffffffffffffffffff1673ffffffffffffffffffffffffffffffffffffffff1681526020019081526020016000208054600181600116156101000203166002900480601f0160208091040260200160405190810160405280929190818152602001828054600181600116156101000203166002900480156104465780601f1061041b57610100808354040283529160200191610446565b820191906000526020600020905b81548152906001019060200180831161042957829003601f168201915b50505050509050919050565b828054600181600116156101000203166002900490600052602060002090601f016020900481019282601f1061049357803560ff19168380011785556104c1565b828001600101855582156104c1579182015b828111156104c05782358255916020019190600101906104a5565b5b5090506104ce91906104d2565b5090565b6104f491905b808211156104f05760008160009055506001016104d8565b5090565b905600a165627a7a72305820d0b7eb55f95ea4419074a4b16251cfa3474a03e6caeb2d0711ae29d56d8e6bd70029",
  "source": "pragma solidity ^0.4.0;\n\ncontract Tiny {\n\n    /*\n    Map of key to values\n    key - The key for looking up the list of addresses\n    values - The list of values, which correspond to the addresses\n    */\n    mapping (address => string) keyValues;\n    address key;\n    address private owner_;\n\n    constructor() public {\n        owner_ = msg.sender;\n    }\n\n    modifier onlyBy()\n    {\n        require(\n            msg.sender == owner_,\n            \"Sender not authorized.\"\n        );\n        _;\n    }\n\n    /*\n    Adds a kv pair to the mapping\n    */\n    function addKv(string val) external payable {\n\n        uint fee = 1 finney;\n        assert(msg.value >= fee);\n\n        key = msg.sender;\n        keyValues[key] = val;\n    }\n\n    /*\n    Returns the value for this key\n    */\n    function getKv(address lookupKey) view external returns (string) {\n        return keyValues[lookupKey];\n    }\n\n    /*\n    Restrict withdrawls\n    */\n    function withdraw() external onlyBy {\n        owner_.transfer(address(this).balance);\n    }\n}\n",
  "sourcePath": "/Users/shankarganesh/GitHub/tiny-eth-contract/contracts/Tiny.sol",
  "compiler": {
    "name": "solc",
    "version": "0.4.24+commit.e67f0147.Emscripten.clang"
  },
  "schemaVersion": "2.0.1",
  "updatedAt": "2018-09-07T02:16:16.319Z"
}