{
  "contractName": "Tiny",
  "abi": [
    {
      "constant": true,
      "inputs": [
        {
          "name": "",
          "type": "address"
        }
      ],
      "name": "keyValues",
      "outputs": [
        {
          "name": "",
          "type": "bytes32"
        }
      ],
      "payable": false,
      "stateMutability": "view",
      "type": "function"
    },
    {
      "constant": true,
      "inputs": [],
      "name": "key",
      "outputs": [
        {
          "name": "",
          "type": "address"
        }
      ],
      "payable": false,
      "stateMutability": "view",
      "type": "function"
    },
    {
      "inputs": [],
      "payable": false,
      "stateMutability": "nonpayable",
      "type": "constructor"
    },
    {
      "constant": false,
      "inputs": [
        {
          "name": "val",
          "type": "bytes32"
        }
      ],
      "name": "addKv",
      "outputs": [],
      "payable": false,
      "stateMutability": "nonpayable",
      "type": "function"
    },
    {
      "constant": true,
      "inputs": [
        {
          "name": "lookupKey",
          "type": "address"
        }
      ],
      "name": "getKv",
      "outputs": [
        {
          "name": "",
          "type": "bytes32"
        }
      ],
      "payable": false,
      "stateMutability": "view",
      "type": "function"
    }
  ],
  "bytecode": "0x608060405234801561001057600080fd5b5061030c806100206000396000f300608060405260043610610062576000357c0100000000000000000000000000000000000000000000000000000000900463ffffffff16806317982ed4146100675780633943380c146100c6578063d20955aa1461011d578063f701722f1461017c575b600080fd5b34801561007357600080fd5b506100a8600480360381019080803573ffffffffffffffffffffffffffffffffffffffff1690602001909291905050506101ad565b60405180826000191660001916815260200191505060405180910390f35b3480156100d257600080fd5b506100db6101c5565b604051808273ffffffffffffffffffffffffffffffffffffffff1673ffffffffffffffffffffffffffffffffffffffff16815260200191505060405180910390f35b34801561012957600080fd5b5061015e600480360381019080803573ffffffffffffffffffffffffffffffffffffffff1690602001909291905050506101eb565b60405180826000191660001916815260200191505060405180910390f35b34801561018857600080fd5b506101ab6004803603810190808035600019169060200190929190505050610233565b005b60006020528060005260406000206000915090505481565b600160009054906101000a900473ffffffffffffffffffffffffffffffffffffffff1681565b60008060008373ffffffffffffffffffffffffffffffffffffffff1673ffffffffffffffffffffffffffffffffffffffff168152602001908152602001600020549050919050565b33600160006101000a81548173ffffffffffffffffffffffffffffffffffffffff021916908373ffffffffffffffffffffffffffffffffffffffff16021790555080600080600160009054906101000a900473ffffffffffffffffffffffffffffffffffffffff1673ffffffffffffffffffffffffffffffffffffffff1673ffffffffffffffffffffffffffffffffffffffff1681526020019081526020016000208160001916905550505600a165627a7a72305820a07c7921091c7b7effaa4d36c2fec34d6a4f81e5b4bcd2be8d0cc283ae94d4650029",
  "source": "pragma solidity ^0.4.0;\n\ncontract Tiny {\n\n    /*\n    Map of key to values\n    key - The key for looking up the list of addresses\n    values - The list of values, which correspond to the addresses\n    */\n    mapping (address => bytes32) public keyValues;\n    address public key;\n\n    constructor() public {\n\n    }\n\n    /*\n    Adds a kv pair to the mapping\n    */\n    function addKv(bytes32 val) public {\n        key = msg.sender;\n        keyValues[key] = val;\n    }\n\n    /*\n    Returns the value for this key\n    */\n    function getKv(address lookupKey) view public returns (bytes32) {\n        return keyValues[lookupKey];\n    }\n}\n",
  "sourcePath": "/Users/shankarganesh/GitHub/tiny-eth-contract/contracts/Tiny.sol",
  "compiler": {
    "name": "solc",
    "version": "0.4.24+commit.e67f0147.Emscripten.clang"
  },
  "schemaVersion": "2.0.1",
  "updatedAt": "2018-08-20T02:47:11.599Z"
}